:020000040800F2
:1000000060050020C1010008AB140008251300089A
:10001000A914000857070008E516000800000000B2
:10002000000000000000000000000000AF14000805
:100030005907000800000000AD140008B1140008C2
:10004000DB010008DB010008DB010008DB01000820
:10005000DB010008DB010008DB010008DB01000810
:10006000DB010008DB010008DB010008DB01000800
:10007000DB010008DB010008DB010008DB010008F0
:10008000DB010008DB010008DB010008DB010008E0
:10009000DB010008DB010008DB010008DB010008D0
:1000A000DB010008DB010008DB010008DB010008C0
:1000B000DB010008DB010008DB010008DB010008B0
:1000C000DB010008DB010008DB010008DB010008A0
:1000D000DB010008DB010008DB010008DB01000890
:1000E000DB010008DB010008DB010008DB01000880
:1000F000DB010008DB010008DB010008DB01000870
:10010000DB010008DB010008DB010008DB0100085F
:10011000DB010008DB010008DB010008DB0100084F
:10012000DB010008DB010008DB010008DB0100083F
:10013000DB010008DB010008DB010008DB0100082F
:10014000DB010008DB010008DB010008DB0100081F
:10015000DB010008DB010008DB010008DB0100080F
:10016000DB010008DB010008DB010008DB010008FF
:10017000DB010008DB010008DB01000800000000D3
:10018000DB010008DB010008DB010008DB010008DF
:10019000DB010008DB010008DB010008DB010008CF
:1001A000DB010008DB010008DB010008DFF80CD0F0
:1001B00000F050FA004800479D220008600500202A
:1001C0000648804706480047FEE7FEE7FEE7FEE7F1
:1001D000FEE7FEE7FEE7FEE7FEE7FEE73D15000867
:1001E000AD0100082DE9F05F0546002092469B46D0
:1001F00088460646814640241BE02846414647463D
:10020000224600F05EF853465A46C01A914110D378
:1002100011461846224600F045F82D1A67EB0108F2
:100220004F4622460120002100F03CF817EB000960
:100230004E41201EA4F10104DFDC484631462A4627
:100240004346BDE8F09FD2B201E000F8012B491E01
:10025000FBD270470022F6E710B513460A46044663
:100260001946FFF7F0FF204610BD421C10F8011B95
:100270000029FBD1801A704730B50B46014600209B
:100280002022012409E021FA02F59D4205D303FA58
:1002900002F5491B04FA02F52844151EA2F10102D9
:1002A000F1DC30BD202A04DB203A00FA02F1002004
:1002B00070479140C2F1200320FA03F319439040A4
:1002C0007047202A04DB203A21FA02F0002170470F
:1002D00021FA02F3D040C2F12002914008431946AE
:1002E00070472DE9FE4F804681EA0300C00F0C469F
:1002F000009021F0004123F00045B8EB0200A94135
:1003000005D24046214690461C460B46024623F045
:100310000040104347D0270DC7F30A00C3F30A512A
:100320000290401A019040286BDAC3F3130040F4A6
:10033000801B0098924620B10023D2EB030A63EBA6
:100340000B0B01985946C0F140025046FFF7AAFF37
:1003500006460D4650465946019A00F08DF910EBBD
:1003600008006141002487EA115284EAE7731A43C6
:1003700040D0009A62B3019A012A4FEA075215DC75
:10038000001B61EB02014FF0004202EA0752CDE987
:100390000042001C41F5801132462B4600F08DF9D9
:1003A00003B0BDE8F08F40462146F9E7001B61EB42
:1003B0000201001C41F5801300185B412018A2F5D2
:1003C000001747EB030140EAD570B6196D4111E003
:1003D0006D084FEA360645EAC0754FEA0752001B22
:1003E00061EB0201001C41F5801149084FEA300021
:1003F0000019514132462B4603B0BDE8F04F00F0E2
:100400004DB90098012240000023D0EB020263EBBB
:10041000E073009821464FEAE074B8EB000061EB0E
:100420000401E9E783F000435BE781F0004158E70E
:100430002DE9FE4F81EA030404F0004421F000415D
:1004400000944FF0000B23F0004350EA01045ED00B
:1004500052EA03045BD0C3F30A54C1F30A552C4497
:10046000A4F2F3340194A0FB0254C1F3130141F44C
:100470008011C3F3130343F4801301FB024400FB18
:10048000034E840A970A44EA815447EA8357A4FB3F
:10049000076802958D0A05FB07854FEA932C04FB3C
:1004A0000C542705029D4FEA065847EA1637B5EB6C
:1004B00008056EEB070C870E920E47EA811742EA99
:1004C0008312A7FB0201B6EB0B0164EB00042B0DBA
:1004D00043EA0C335E1844EB1C50DA465146E7FB06
:1004E0000201C5F313044FEA0B3343EA14534FEAF6
:1004F0000432019C43EA0603A4F10C040294009C1C
:10050000CDE900B400F0D9F803B0BDE8F08F0020C9
:100510000146F9E72DE9F04D81EA030404F0004BB0
:1005200021F0004514464FF0000A23F0004150EA44
:10053000050220D054EA01021DD0C5F30A57024635
:10054000C5F31303C1F31300C1F30A5640F4801539
:1005500043F48013A7EB0608101BD64608F2FD38BB
:1005600073EB050002D308F1010801E092185B412A
:10057000B8F1000F03DA00200146BDE8F08D00203D
:100580004FF48011064684460EE0171B73EB0507F7
:1005900005D3121B63EB050306434CEA010C490823
:1005A0004FEA300092185B4150EA0107EDD152EA60
:1005B000030012D082EA040083EA0501084305D053
:1005C000101BAB4106D20122002306E000224FF0AF
:1005D000004302E06FF0010253101AEB06004CEBEF
:1005E000085110EB0A0041EB0B01BDE8F04D00F0A3
:1005F00055B8C1F30A52C1F3130140F2FF3341F47D
:1006000080119A4202DA00200146704740F23343DB
:100610009A42A2F2334202DC5242FFF752BEFFF787
:1006200041BE000030B5041E71F1000404DB4FF040
:100630000044404264EB0101141E73F1000405DB29
:100640001C464FF00043524263EB0403994208BF3B
:10065000904230BD064C074D06E0E06840F00103D3
:1006600094E8070098471034AC42F6D3FFF7A2FD98
:10067000E423000804240008202A06DBCB17203AD4
:1006800041FA02F043EAE07306E041FA02F3D04097
:10069000C2F12002914008431946704710B5141E5C
:1006A00073F1000408DA401C41F1000192185B412B
:1006B0001A4301D120F0010010BD2DE9F04D924602
:1006C0009B4611B1B1FA81F202E0B0FA80F2203219
:1006D0009046FFF7E7FD04460F4640EA0A0041EA6C
:1006E0000B0153465A46084313D0114653EA010002
:1006F00019D0C8F140025046FFF7E3FD05460E460B
:10070000504659464246FFF7CDFD084305D001202B
:1007100004E020463946BDE8F08D0020054346EA56
:10072000E0762C4337430A986305E40AA0EB0800FF
:100730000022FD0A44EA47540A3002D5002001464F
:10074000E9E7010510196941DDE90845001969412A
:10075000BDE8F04DA2E7FEE77047000030B5022388
:100760004371002305E000BF056851F823402C6069
:100770005B1C9342F8D30168096801224271084664
:1007800030BD10B5040002D0607910B106E0012040
:1007900010BD00202071204600F004F80120607197
:1007A000002010BD08B500680649884208D10648F7
:1007B000016841F480510160006800F480500090AD
:1007C00008BD000000300240303802402DE9F84FEB
:1007D00000224FF0010803254FF00F0E0B6808FAB6
:1007E00002F42340A3426ED14E68012E05D0022EA2
:1007F00003D0112E01D0122E12D186684FEA420C7E
:1008000005FA0CF7BE43CF6807FA0CF73743876049
:100810004668A6430C79C4F3001494403443446002
:10082000C668570005FA07FC8C6826EA0C06BC402F
:100830003443C4604C68022C01D0122C13D1D4086C
:1008400000EB8404A346D4F8209054074FEAD46AFE
:100850000EFA0AF629EA06090E6906FA0AF646EAC7
:100860000906CBF8206004680E7924EA0C0406F02F
:100870000306BE40264306604C68E4006FD53B4C3F
:10088000266846F480462660246822F0030604F4B5
:1008900080440094364C3444A446D4F80848960763
:1008A000360F0EFA06F7BC43324FB84201D100278B
:1008B0002EE0314FB84201D1012729E02F4FB84235
:1008C00002D1022724E04AE02D4FB84201D103278C
:1008D0001EE02C4FB84201D1042719E02A4FB8423C
:1008E00001D1052714E0294FB84201D106270FE0B6
:1008F000274FB84201D107270AE0264FB84201D15D
:10090000082705E0244FB84201D1092700E00A2753
:10091000B7402743CCF80878204E34684F689C4392
:10092000FF0300D51C4334601C4E361D34684F68ED
:100930009C43BF0300D51C433460184E083634680E
:100940004F689C43FF0200D51C433460134E0C36A5
:1009500034684F689C43BF0200D51C433460521C6E
:10096000102AFFF43BAFBDE8F88F00004438024086
:100970000030014000000240000402400008024034
:10098000000C024000100240001402400018024017
:10099000001C02400020024000240240003C0140B4
:1009A0000069084000D0012070470AB1816170479A
:1009B0000904FBE701488068704700000800002038
:1009C0000248816802781144816070470800002065
:1009D0000B4810B5016841F400710160016841F4F1
:1009E00080610160016841F480710160032000F0C2
:1009F00061F8002000F006F800F024F8002010BD97
:100A0000003C024070B50D4D04464FF47A712878D1
:100A1000B1FBF0F00A490968B1FBF0F000F02EFBE1
:100A200048B9102C07D200222146501E00F022F8AF
:100A300000206C6070BD012070BD00000800002027
:100A4000140000200A4808B5016841F480410160A3
:100A5000006800F4804000900548001F016841F0E4
:100A600080510160006800F08050009008BD0000D7
:100A700044380240F0B40E4B1B680C46C3F302230B
:100A8000C3F10705042D00D90425191D072901D23A
:100A9000002300E0DB1E012606FA05F1491E214075
:100AA00099409E40761E16403143F0BC00F02EBEA9
:100AB0000CED00E0064900F0070208684FF6FF035E
:100AC000184040EA0220034A1043086070470000C3
:100AD0000CED00E00000FA052DE9F8431748016825
:100AE00041F0805101600068154F00F080500126F0
:100AF00000903E64FFF75EFF05464FF47A78114C94
:100B000005E000BFFFF756FF401B40450DD8606869
:100B1000C003F7D57E64FFF74DFF0546464607E064
:100B2000FFF748FF401BB04202D90320BDE8F8831D
:100B300060688003F4D50020F8E7000040380240E8
:100B400000000E42007000402DE9F0470E460500FF
:100B500065D0DFF81481D8F80000F7B200F00F007C
:100B6000B04207D288F80070D8F8000000F00F00FB
:100B7000B04254D128683D4C810712D5400703D5B7
:100B8000206840F4E05020602878000703D52068F2
:100B900040F4604020602068A96820F0F00008431D
:100BA00020602878C0072DD03049686808390128AE
:100BB00012D0022813D0032811D009688907002910
:100BC0002DDA216821F0030101432160FFF7F2FED5
:100BD000814641F2883A0EE009688903EFE7096827
:100BE0008901ECE7FFF7E6FEA0EB0901514502D9C8
:100BF0000320BDE8F0872068696800F00C00B0EBC6
:100C0000810FEFD1D8F80010404601F00F01B1423A
:100C100007D90770006800F00F00B04201D0012032
:100C2000E7E72878400705D52068E96820F4E05018
:100C3000084320602878000706D52068296920F439
:100C4000604040EAC100206000F038F82168084A9E
:100C5000C1F30311515CC8400649086006480068AA
:100C6000FFF7D0FE0020C4E7003C024008380240F5
:100C7000CC230008140000200C0000200448054983
:100C800000680968044AC1F38221515CC84070477A
:100C90001400002008380240DC23000804480549FD
:100CA00000680968044AC1F34231515CC84070478A
:100CB0001400002008380240DC230008154810B555
:100CC000006810F00C02144813D01449042A0FD005
:100CD000082A0ED10F4C241F2268236802F03F021D
:100CE0005B0207D52068C0F38810A0FB010106E075
:100CF000084610BD2168C1F38811A1FB0001002343
:100D0000FFF770FA2168C1F30141491C4900B0FBAB
:100D1000F1F010BD083802400024F40040787D0155
:100D20002DE9F84F04006ED02078DFF83C93C0071F
:100D3000A9F104054AD009F104000168C1F3810159
:100D4000012908D00068C0F3810002280AD1D9F82F
:100D50000000400206D52868800337D56068002867
:100D6000E1D033E06068B0F5803F10D0B0F5A02F3F
:100D7000286810D020F480302860286820F4802073
:100D800028606068A8B1FFF715FE06460DE02868E8
:100D900040F48030F4E740F480202860F7E700BF9B
:100DA000FFF708FE801B642873D828688003F7D5F6
:100DB0000CE0FFF7FFFD064605E000BFFFF7FAFD78
:100DC000801B6428F0D828688003F7D42078DFF8E7
:100DD0009C8280074FF0000A3ED5A348001D0168A1
:100DE00011F00C0F08D00068C0F3810002280BD16D
:100DF000D9F80000400207D42868800716D5E068BB
:100E0000012800D112E02BE1E068B8B10120C8F858
:100E10000000FFF7CFFD064605E000BFFFF7CAFD63
:100E2000801B0228C0D828688007F7D52868216968
:100E300020F0F80040EAC10028600DE0C8F800A0EA
:100E4000FFF7B8FD064604E0FFF7B4FD801B02285B
:100E50001FD828688007F7D42078000722D5824E53
:100E600083486169703671B101210160FFF7A2FD0D
:100E7000074604E0FFF79EFDC01B022809D8306832
:100E80008007F7D50EE0C0F800A0FFF793FD0746F6
:100E900005E082E0FFF78EFDC01B02287DD8306898
:100EA0008007F7D42078400768D5DFF8BCB1002769
:100EB0000BF13C0BDBF80000C0000BD4DBF800109A
:100EC00041F08051CBF80010DBF80000012700F062
:100ED00080500090674E3068C00510D4306840F4F0
:100EE00080703060FFF766FD009005E0FFF762FD5F
:100EF0000099401A022850D83068C005F6D55A4EDD
:100F0000A0686C3601280FD00528306810D020F07A
:100F100001003060306820F004003060A068B8B193
:100F2000FFF748FD00900FE0306840F00100F4E763
:100F300040F004003060F7E7FFF73CFD0099411AEC
:100F400041F28830814266D830688007F4D50EE0DF
:100F5000FFF730FD009007E0FFF72CFD0099411AE4
:100F600041F28830814256D830688007F4D42FB1DE
:100F7000DBF8001021F08051CBF80010A069C8B355
:100F80003949091D0968C1F3810102294AD00228A3
:100F9000504607D0C8F8600000E03CE0FFF70AFDCB
:100FA00004463BE04746C8F86000FFF703FD0646ED
:100FB00005E000BFFFF7FEFC801B02282BD8286845
:100FC0008001F7D4D4E907010843A16A2A4A4908F5
:100FD00002EB0141626A41EA8211084394F82C1045
:100FE00040EA0161C9F8001001203866FFF7E2FC11
:100FF000044606E036E000BFFFF7DCFC001B0228D9
:1010000009D828688001F7D52CE000BFFFF7D2FC93
:10101000001B022802D90320BDE8F88F2868800150
:10102000F4D41FE00128F7D0D9F80000E26900F4F9
:101030008001914214D1226A00F03F0191420FD108
:1010400047F6C071626A0140914209D1A26A00F478
:101050004031914204D1E16A00F07060884201D0D1
:101060000120D9E70020D7E70438024000004742BA
:10107000800E4742007000400000FFFF10B5401E88
:10108000B0F1807F01D3012010BD4FF0E0246061FA
:101090000F21601700F03AFB0020A06107202061BB
:1010A000002010BD70B5040004D094F8390000256C
:1010B00010B106E0012070BD84F83850204600F0E1
:1010C00023F8242084F839002068C16821F40051F5
:1010D000C160204600F040FA2068016921F4904187
:1010E00001612068416921F02A0141612068C168DD
:1010F00041F40051C160E563202084F8390084F890
:101100003A00002070BD0000F0B587B004461421FD
:101110006846FFF79FF821481F4F266800221F49A5
:101120001038022303240725BE4215D10E6846F469
:1011300000360E60096801F400310591016841F044
:10114000010101600068694600F0010005900C2073
:10115000CDE90003124818E0124FBE421AD10E68C2
:1011600046F480260E60096801F48021059101682B
:1011700041F0020101600068694600F0020005903C
:101180004FF44060CDE90003074802AE86E8340022
:10119000FFF71CFB07B0F0BD0044004040380240A0
:1011A0000000024000480040000402402DE9F843DE
:1011B000044690F83A00994616460D46202852D12A
:1011C000BDB1B6B194F8380001284CD0012084F8A4
:1011D00038000027E763222084F83A002C34FFF718
:1011E000E9FB24F8026B804624F80A6B04F838798E
:1011F00031E00120BDE8F883E08D401EE085A06865
:101200004346B0F5805F4FF000024FF020012046CA
:10121000CDF8009004D000F033FA98B10320E9E74C
:1012200000F02EFA0028F9D12069002820684068D3
:1012300003D0C1B225F8011B0DE0C0F3080125F869
:10124000021B08E0206900282068406801D000F0F7
:101250007F0005F8010BE08D0028CDD1202084F817
:101260003A000020C6E70220C4E72DE9F84304460F
:1012700090F839001F4616460D46202850D1B5B1CA
:10128000AEB194F8380001284AD0012084F8380023
:101290004FF00008C4F83C80212084F83900FFF7A3
:1012A00089FBA6848146E68484F8388026E0012004
:1012B000BDE8F883E08C401EE084A0684B46B0F5A2
:1012C000805F4FF000024FF080012046009703D06E
:1012D00000F0D6F9E8B90DE000F0D2F9C8B92888D5
:1012E0002168C0F308004860206908B16D1C05E062
:1012F000AD1C03E0216815F8010B4860E08C002864
:10130000D8D14B46002240212046009700F0B8F982
:1013100008B10320CCE7202084F839000020C7E77B
:101320000220C5E7FEE70000F0B587B0142168464B
:10133000FEF790FF52480024016841F0100101605F
:10134000016801F010010591016841F480710160AC
:10135000016801F480710591016841F004010160A8
:10136000016801F004010591016841F0200101606C
:10137000016801F020010591016841F080010160E0
:10138000016801F080010591016841F001010160EF
:10139000016801F001010591016841F0020101605D
:1013A000016801F002010591016841F0400101600E
:1013B000016801F040010591016841F008010160F8
:1013C0000068304F00F008000590002240213846A8
:1013D000FFF7EBFA4FF6FF7603250096CDE90154AF
:1013E00069462948FFF7F2F93011CDE90005694651
:1013F00002942648FFF7EAF90096CDE901546946C0
:101400002348FFF7E3F94FF6BF70CDE900056946C1
:1014100002943846FFF7DAF9402000900120CDE928
:101420000104694638460394FFF7D0F90096CDE9E8
:10143000015469461748FFF7C9F94FF6F370CDE933
:101440000005694602941448FFF7C0F94FF2FF30D7
:10145000CDE90005694602941048FFF7B7F90096F8
:10146000CDE9015469460E48FFF7B0F90096CDE981
:10147000015469460B48FFF7A9F907B0F0BD000019
:1014800030380240001402400010024000200240A8
:1014900000080240001C024000000240000402401C
:1014A00000180240000C0240FEE77047704770478A
:1014B000FFF786BA30B593B030216846FEF7CAFE12
:1014C00014210CA8FEF7C6FE1A480025016841F059
:1014D00080510160006800F080501190164801684A
:1014E00041F4404101600068022400F44040119042
:1014F000012003901020009406940490CDE9075039
:101500004FF4B470CDE9090404200B906846FFF74E
:1015100007FCFFF7E1FA0CA90F2081E831004FF436
:10152000A0500F90109005210CA8FFF70DFB13B0F1
:1015300030BD00004038024000700040054801689E
:1015400041F47001016003494FF000608039086088
:101550007047000088ED00E02DE9F0410446006886
:101560000169E26821F44051114301612169A068D9
:10157000E26908436169114308432168CA6849F276
:101580000C639A430243CA6020684169A26921F44E
:10159000407111434161E069192764253226B0F595
:1015A000004F354A354920684FF0000806D0884280
:1015B00001D0904236D1FFF771FB35E0884201D06F
:1015C000904202D1FFF76AFB01E0FFF757FB616829
:1015D0004A18A0FB070148EB0803FEF703FE01468B
:1015E000B0FBF5F00201B1FBF5F06FF018035843C2
:1015F00001EB800006EBC000B0FBF5F000F0F80056
:1016000002EB4002B1FBF5F0584301EB800006EB22
:10161000C000B0FBF5F000F00700216810448860BE
:10162000BDE8F081FFF72AFB61688B0F8A00A0FB01
:101630000701FEF7D7FD0146B0FBF5F06FF0180289
:10164000504301EB800006EB0010B0FBF5F000F01A
:10165000F002B1FBF5F002EB0012B1FBF5F06FF018
:101660001803584301EB800006EB0010B0FBF5F0C7
:1016700000F00F00D1E7000000140140001001400D
:101680002DE9F041984617460E460446069D1DE09A
:10169000681C1BD02DB1FFF78DF9A0EB0800A84204
:1016A00014D92068C16821F4D071C16020684169F3
:1016B00021F001014161202084F8390084F83A00CA
:1016C000002084F838000320BDE8F081206800681D
:1016D00036EA000004D00020B842D9D00020F3E759
:1016E0000120F9E7FEE7000037B514460846064B2F
:1016F0006A46214600F0ECF804466946002000F0F6
:101700007EFC20463EBD0000FF1F00080907090EB1
:10171000002804DB00F1E02080F80014704700F09E
:101720000F0000F1E02080F8141D704702E008C8A7
:10173000121F08C1002AFAD170477047002001E04B
:1017400001C1121F002AFBD1704700002DE9FF5F85
:1017500082B00021DDE90430020DDDF840B0034322
:1017600018D044F61050A2F2FF32424315141198DB
:1017700001281FD0A5EB0B00401C5FEA000A4FF0C8
:1017800000064E4FDFF83891B046504615D5CAF1E5
:10179000000413E0119801244AA3012801D16FEA43
:1017A0000B010298119AC0E90031C0E9024206B06B
:1017B000BDE8F09FCBF10000DFE704460021404A7E
:1017C000491842EB0450CDE9001012E0E00707D0C1
:1017D00032463B4640464946FEF72AFE8046894649
:1017E00032463B4610461946FEF722FE06460F4695
:1017F0006410002CEAD1DDE90401DDE90023BAF12F
:10180000000F06DAFEF714FE42464B46FEF710FEC6
:1018100005E0FEF77FFE42464B46FEF77BFE0446A0
:101820000E460022284BFEF7FDFE03D84FF0FF3096
:10183000014607E00022254B20463146FEF751FDC8
:10184000FEF7D7FE102409E0002C0ADB0A22002351
:10185000FEF7C8FC039B30321A55641E50EA0102A1
:10186000F2D1641C039AC4F111031444119A012AA1
:1018700003D0012208430DD10AE0084304D0002020
:101880004FF0110B119072E7A3EB0B056D1E0DE0ED
:101890005B4504DD4FF0000205F1010504E003DAC9
:1018A0004FF00002A5F10105002AECD00298119931
:1018B000C0E90231C0E9004579E7000000001440AA
:1018C0000000F03F300000000000F0430000E03F67
:1018D0002DE9FF4F95B09B468946064600250FE24D
:1018E000252877D100242746F84A0121059400E0F5
:1018F000044316F8013F203B01FA03F01042F7D1F0
:1019000030782A2811D06FF02F033078A0F1300200
:10191000092A16D8059A44F0020402EB820203EB6E
:1019200042021044761C0590EFE759F8042B05920B
:10193000002A03DA504244F40054059044F00204B3
:10194000761C30782E2816D116F8010F44F00404C6
:101950002A280DD06FF02F023078A0F13003092B28
:1019600009D807EB870302EB4303C718761CF3E79C
:1019700059F8047B761C30786C280FD006DC4C2894
:1019800017D068280DD06A2814D104E0742810D02C
:101990007A280FD10DE044F400140AE044F48014D6
:1019A00001E044F440147278824202D104F58014BC
:1019B000761C761C307866280BD013DC582877D03C
:1019C00009DC002875D04528F6D04628F4D04728F1
:1019D0001AD19DE118E0632835D0642879D06528B4
:1019E00012D195E1702873D008DC6728F1D06928FE
:1019F0006FD06E280DD06F2806D1B5E073282CD09B
:101A0000752875D0782874D05A46179990476D1C60
:101A100075E1C4F30250022809D003280DD0D9F88B
:101A2000001004280DD00D6009F1040967E1D9F810
:101A30000010EA17C1E90052F6E7D9F800100D804E
:101A4000F2E70D70F0E719F8041B8DF80010002084
:101A50008DF80100EA46012003E059F804AB4FF08D
:101A6000FF3061074FF0000102D40DE008F10101E1
:101A70008846B9420FDA8045F8DB1AF808100029C9
:101A8000F4D108E008F1010188468142FADB1AF836
:101A900008100029F6D105985B46A0EB08072146FF
:101AA0003846179A00F094FA284400EB080507E03E
:101AB0004DE029E10DE01AF8010B5A4617999047BD
:101AC000B8F10108F7D25B4621463846179A13E170
:101AD00042E00A220092C4F302524FF0000A022AA6
:101AE00008D059F804CB032A4FEAEC710AD00DE074
:101AF00029E02AE009F1070121F00702F2E802C11A
:101B0000914609E00FFA8CFC4FEAEC71042A03D1EC
:101B10004FFA8CFC4FEAEC71002907DA0A460021E3
:101B2000DCF1000C61EB02012D2202E0220504D55C
:101B30002B228DF80420012203E0E20701D02022AD
:101B4000F7E7904659E00A2102E010220DE010214B
:101B50004FF0000A00910BE010224FF0000A44F011
:101B600004040827009203E008224FF0000A0092C4
:101B7000C4F30252022A05D059F804CB0021032AEB
:101B800008D009E009F1070121F00702F2E802C1DB
:101B9000914605E01FFA8CFC042A01D10CF0FF0CE1
:101BA0004FF00008220728D5702806D0009B83F04C
:101BB000100353EA0A0305D00EE040228DF80420FA
:101BC000012208E05CEA010206D030228DF80420F0
:101BD0008DF8050002229046009B83F0080353EA2B
:101BE0000A030AD15CEA010201D1620705D530225D
:101BF0008DF804204FF001087F1E582804D034A02F
:101C000003900EA802900DE036A0F9E75346604617
:101C1000009AFEF7E7FA84460398825C0298401E19
:101C2000029002705CEA0100F0D1029806A9081A3D
:101C300000F1200A600702D524F4803400E0012777
:101C4000574502DDA7EB0A0000E0002000EB0A0187
:101C5000009005984144401A0590E00306D45B4685
:101C60002146179A059800F0B3F90544002706E0CD
:101C700001A85A46C05D179990476D1C7F1C4745C7
:101C8000F6DBE0030CD55B462146179A059800F079
:101C90009FF9054404E030205A46179990476D1C7F
:101CA0000099481E00900029F5DC08E0029802998E
:101CB0005A460078491C0291179990476D1CBAF159
:101CC0000001AAF1010AF1DC65E100000928010028
:101CD00030313233343536373839616263646566A2
:101CE0000000000030313233343536373839414264
:101CF000434445460000000000F058F90544761CB6
:101D0000307800287FF4ECAD19B02846BDE8F08F9C
:101D1000620700D4062709F1070222F0070CFCE84D
:101D20000223E14603F000485FEA080C02D00FF2FC
:101D3000702C0DE05FEA045C02D50FF2682C07E01E
:101D40005FEAC47C02D00FF2602C01E0AFF2700CAD
:101D50004FF0FF3823F00043CDF850C065280CD079
:101D600006DC452809D046281DD047283DD13DE056
:101D7000662818D067287ED138E00021112F01DBBA
:101D8000112000E0781CCDE9000106A90EA8FFF79C
:101D9000DDFCDDE90F010E9A03910021009207F1AD
:101DA000010A04914DE04FF000400097CDE9011089
:101DB00006A90EA8FFF7CAFCDDE90F0203920E9BED
:101DC00011990022DDF80CA00093049211B9791C3E
:101DD00000EB010AB7EB0A0004D4C0F1FF3007F1B1
:101DE000010A0490AAEB0700019044E0012F00DAF9
:101DF00001270021112F01DD112000E03846CDE937
:101E0000000106A90EA8FFF7A1FCDDE90F010E9A5B
:101E10000391002104910092BA4621070CD4039942
:101E2000514500DA8A46BAF1010F05DD009AAAF1A0
:101E30000101515C302908D0B84202DA10F1040FD8
:101E400006DA0121CDE9011015E0AAF10101E9E767
:101E5000002805DC049901440491AAEB000102E08A
:101E6000411C514500DD8A460499401A401C0190EE
:101E70004FF000400290200704D40198504501DB48
:101E8000CDF8048000208DF84F0002980DF14F0727
:101E9000B0F1004F25D02B200E9002984FF0020891
:101EA00000280CDA404202902D200E9007E00A2113
:101EB0000298FEF7E1F93031029007F8011DB8F100
:101EC0000001A8F10108F2DC02980028EFD1791E88
:101ED0000E980870307800F0200040F0450007F8B8
:101EE000020D12A8C01B00F107081498007800B179
:101EF000012000EB0A01019801EBE07105984144D3
:101F0000401A401E0590E00306D45B462146179A0E
:101F1000059800F05DF805441498007818B15A4609
:101F2000179990476D1CE00324D55B462146179A0C
:101F3000059800F04DF805441CE00498002807DBE4
:101F4000DDE90301884203DD0098405C179901E058
:101F5000179930205A469047049805F10105401C16
:101F600004900198401E019004D12E205A461799E2
:101F700090476D1CBAF10001AAF1010ADDDC05E011
:101F800017F8010B5A46179990476D1CB8F10001DC
:101F9000A8F10108F4DC5B462146179A0598ABE6E8
:101FA0002D0000002B000000200000002DE9F04172
:101FB000044600251E461746880404D405E0394629
:101FC0002020B0476D1C641EF9D52846BDE8F0817D
:101FD0002DE9F041044600251E469046C80301D570
:101FE000302700E02027880404D505E04146384624
:101FF000B0476D1C641EF9D52846BDE8F0810A681B
:10200000531C0B601070704738B5044612A000F0E6
:10201000C5F92178491C6018091F50F8042C204686
:1020200000F01CF928B117A000F0B8F900F0C0F8D2
:1020300038BD1CA000F0B2F92078012100F0A8F80A
:1020400010218DF800100A461FA000F0A7F9012109
:10205000684600F0F9F838BD424C5F4445425547A8
:102060005F4D53473A626F6F746C6F616465725F66
:1020700068616E646C655F6765747665725F636DD9
:10208000640A0000424C5F44454255475F4D534748
:102090003A636865636B73756D206661696C2021B6
:1020A000210A0000424C5F44454255475F4D53476B
:1020B0003A636865636B73756D20737563636573ED
:1020C000732021210A000000424C5F4445425547DD
:1020D0005F4D53473A424C5F564552203A202564A3
:1020E000202523780A00000070B50AA000F056F9F8
:1020F000134D2C6813A0214600F050F984F3088892
:102100006C6818A0214600F049F9A446BDE870406B
:1021100060470000424C5F44454255475F4D53477E
:102120003A626F6F746C6F616465725F6A756D702F
:102130005F746F5F757365725F6170700A00000095
:1021400000800008424C5F44454255475F4D53476D
:102150003A4D53502076616C7565203A20252378DE
:102160000A000000424C5F44454255475F4D5347CB
:102170003A206170702072657365742068616E64C6
:102180006C65722061646472203A202523780A000D
:1021900008B5A5208DF800008DF801104FF0FF3331
:1021A000022269460148FFF760F808BD18000020C8
:1021B00008B57F208DF800004FF0FF3301226946FB
:1021C0000148FFF752F808BD180000200F4C4FF0EF
:1021D000FF35C8210D48FEF73DF80C492B4601227A
:1021E000A1F18000FEF7E2FF084822782B46611C2F
:1021F0008038FEF7DBFF6078512803D004A000F0A0
:10220000CDF8E6E70148FFF7FFFEE2E7980000207F
:10221000424C5F44454255475F4D53473A496E76BD
:10222000616C696420636F6D6D616E6420636F64BF
:10223000652072656365697665642066726F6D20DE
:10224000686F7374200A00008AB201464FF0FF33B2
:102250000148FFF70AB8000018000020F8B507464B
:10226000FF2016460D46002407E0385D009001224D
:1022700069460948FEF772FA641CAC42F5D3064978
:1022800009688A6842F001028A60B04201D10020E8
:10229000F8BD0120F8BD000000000020FEF798FB0B
:1022A000FFF708F9FFF740F81A491948086008468F
:1022B000FEF767FA194818494FF4E1350024016028
:1022C000C0E901540C26C460C0E904468461C461BD
:1022D000FEF7E8FE1148124940300160C0E90154A0
:1022E000C460C0E904468461C461FEF7DBFE0D4CA6
:1022F00001212046FEF754FB28B10BA000F04EF858
:10230000FFF7F2FEF4E717A000F048F8FFF75EFFD2
:10231000003002400000002000440040180000206F
:102320000048004000000240424C5F44454255478F
:102330005F4D53473A427574746F6E206973206E17
:102340006F742070726573736564202E2E2065781B
:1023500065637574696E672075736572206170704E
:102360000A000000424C5F44454255475F4D5347C9
:102370003A427574746F6E2069732070726573735E
:102380006564202E2E20676F696E6720746F20426F
:102390004C206D6F64650A0D000000000FB400B59D
:1023A00095B017AA68461699FFF79EF96846FDF79B
:1023B0005CFF82B24FF0FF3369460348FEF755FFDA
:1023C00015B05DF814FB000058000020000000006C
:1023D00000000000010203040607080900000000D5
:1023E000010203040424000800000020180000007B
:1023F0002C1700081C2400081800002048050000C5
:102400003C17000800000000000000000100000070
:0C24100010000000000000000024F40098
:04000005080001AD41
:00000001FF
