:020000040800F2
:1000000070050020C1010008FD170008B5160008A2
:10001000F917000857070008411D000800000000FC
:1000200000000000000000000000000001180008AF
:100030005B07000800000000FF1700080318000815
:10004000DB010008DB010008DB010008DB01000820
:10005000DB010008DB010008DB010008DB01000810
:10006000DB010008DB010008DB010008DB01000800
:10007000DB010008DB010008DB010008DB010008F0
:10008000DB010008DB010008DB010008DB010008E0
:10009000DB010008DB010008DB010008DB010008D0
:1000A000DB010008DB010008DB010008DB010008C0
:1000B000DB010008DB010008DB010008DB010008B0
:1000C000DB010008DB010008DB010008DB010008A0
:1000D000DB010008DB010008DB010008DB01000890
:1000E000DB010008DB010008DB010008DB01000880
:1000F000DB010008DB010008DB010008DB01000870
:10010000DB010008DB010008DB010008DB0100085F
:10011000DB010008DB010008DB010008DB0100084F
:10012000DB010008DB010008DB010008DB0100083F
:10013000DB010008DB010008DB010008DB0100082F
:10014000DB010008DB010008DB010008DB0100081F
:10015000DB010008DB010008DB010008DB0100080F
:10016000DB010008DB010008DB010008DB010008FF
:10017000DB010008DB010008DB01000800000000D3
:10018000DB010008DB010008DB010008DB010008DF
:10019000DB010008DB010008DB010008DB010008CF
:1001A000DB010008DB010008DB010008DFF80CD0F0
:1001B00000F050FA00480047292B00087005002085
:1001C0000648804706480047FEE7FEE7FEE7FEE7F1
:1001D000FEE7FEE7FEE7FEE7FEE7FEE7D1180008D0
:1001E000AD0100082DE9F05F0546002092469B46D0
:1001F00088460646814640241BE02846414647463D
:10020000224600F05EF853465A46C01A914110D378
:1002100011461846224600F045F82D1A67EB0108F2
:100220004F4622460120002100F03CF817EB000960
:100230004E41201EA4F10104DFDC484631462A4627
:100240004346BDE8F09FD2B201E000F8012B491E01
:10025000FBD270470022F6E710B513460A46044663
:100260001946FFF7F0FF204610BD421C10F8011B95
:100270000029FBD1801A704730B50B46014600209B
:100280002022012409E021FA02F59D4205D303FA58
:1002900002F5491B04FA02F52844151EA2F10102D9
:1002A000F1DC30BD202A04DB203A00FA02F1002004
:1002B00070479140C2F1200320FA03F319439040A4
:1002C0007047202A04DB203A21FA02F0002170470F
:1002D00021FA02F3D040C2F12002914008431946AE
:1002E00070472DE9FE4F804681EA0300C00F0C469F
:1002F000009021F0004123F00045B8EB0200A94135
:1003000005D24046214690461C460B46024623F045
:100310000040104347D0270DC7F30A00C3F30A512A
:100320000290401A019040286BDAC3F3130040F4A6
:10033000801B0098924620B10023D2EB030A63EBA6
:100340000B0B01985946C0F140025046FFF7AAFF37
:1003500006460D4650465946019A00F08DF910EBBD
:1003600008006141002487EA115284EAE7731A43C6
:1003700040D0009A62B3019A012A4FEA075215DC75
:10038000001B61EB02014FF0004202EA0752CDE987
:100390000042001C41F5801132462B4600F08DF9D9
:1003A00003B0BDE8F08F40462146F9E7001B61EB42
:1003B0000201001C41F5801300185B412018A2F5D2
:1003C000001747EB030140EAD570B6196D4111E003
:1003D0006D084FEA360645EAC0754FEA0752001B22
:1003E00061EB0201001C41F5801149084FEA300021
:1003F0000019514132462B4603B0BDE8F04F00F0E2
:100400004DB90098012240000023D0EB020263EBBB
:10041000E073009821464FEAE074B8EB000061EB0E
:100420000401E9E783F000435BE781F0004158E70E
:100430002DE9FE4F81EA030404F0004421F000415D
:1004400000944FF0000B23F0004350EA01045ED00B
:1004500052EA03045BD0C3F30A54C1F30A552C4497
:10046000A4F2F3340194A0FB0254C1F3130141F44C
:100470008011C3F3130343F4801301FB024400FB18
:10048000034E840A970A44EA815447EA8357A4FB3F
:10049000076802958D0A05FB07854FEA932C04FB3C
:1004A0000C542705029D4FEA065847EA1637B5EB6C
:1004B00008056EEB070C870E920E47EA811742EA99
:1004C0008312A7FB0201B6EB0B0164EB00042B0DBA
:1004D00043EA0C335E1844EB1C50DA465146E7FB06
:1004E0000201C5F313044FEA0B3343EA14534FEAF6
:1004F0000432019C43EA0603A4F10C040294009C1C
:10050000CDE900B400F0D9F803B0BDE8F08F0020C9
:100510000146F9E72DE9F04D81EA030404F0004BB0
:1005200021F0004514464FF0000A23F0004150EA44
:10053000050220D054EA01021DD0C5F30A57024635
:10054000C5F31303C1F31300C1F30A5640F4801539
:1005500043F48013A7EB0608101BD64608F2FD38BB
:1005600073EB050002D308F1010801E092185B412A
:10057000B8F1000F03DA00200146BDE8F08D00203D
:100580004FF48011064684460EE0171B73EB0507F7
:1005900005D3121B63EB050306434CEA010C490823
:1005A0004FEA300092185B4150EA0107EDD152EA60
:1005B000030012D082EA040083EA0501084305D053
:1005C000101BAB4106D20122002306E000224FF0AF
:1005D000004302E06FF0010253101AEB06004CEBEF
:1005E000085110EB0A0041EB0B01BDE8F04D00F0A3
:1005F00055B8C1F30A52C1F3130140F2FF3341F47D
:1006000080119A4202DA00200146704740F23343DB
:100610009A42A2F2334202DC5242FFF752BEFFF787
:1006200041BE000030B5041E71F1000404DB4FF040
:100630000044404264EB0101141E73F1000405DB29
:100640001C464FF00043524263EB0403994208BF3B
:10065000904230BD064C074D06E0E06840F00103D3
:1006600094E8070098471034AC42F6D3FFF7A2FD98
:10067000302C0008502C0008202A06DBCB17203A2B
:1006800041FA02F043EAE07306E041FA02F3D04097
:10069000C2F12002914008431946704710B5141E5C
:1006A00073F1000408DA401C41F1000192185B412B
:1006B0001A4301D120F0010010BD2DE9F04D924602
:1006C0009B4611B1B1FA81F202E0B0FA80F2203219
:1006D0009046FFF7E7FD04460F4640EA0A0041EA6C
:1006E0000B0153465A46084313D0114653EA010002
:1006F00019D0C8F140025046FFF7E3FD05460E460B
:10070000504659464246FFF7CDFD084305D001202B
:1007100004E020463946BDE8F08D0020054346EA56
:10072000E0762C4337430A986305E40AA0EB0800FF
:100730000022FD0A44EA47540A3002D5002001464F
:10074000E9E7010510196941DDE90845001969412A
:10075000BDE8F04DA2E700BFFEE77047704770B5F7
:1007600003460C46002002255D71002104E054F888
:1007700021501E683560491C9142F8D31D682868D5
:1007800001255D7170BD10B504460CB9012010BD86
:10079000607920B900202071204600F005F8012082
:1007A00060710020F3E7000008B50A4A0168914231
:1007B0000FD100BF002100910749096841F4805121
:1007C000054A11601146096801F48051009100BF8B
:1007D00000BF08BD0030024030380240F8B5024684
:1007E0000B460025002400200021E6E0012606FA41
:1007F00001F51E6806EA0504AC4273D15E68012E5D
:1008000008D05E68022E05D05E68112E02D05E68A8
:10081000122E13D190684F000326BE40B0434F0004
:10082000DE68BE4030439060506801268E40B04381
:100830001E79C6F300168E4030435060D0684F00DA
:100840000326BE40B0434F009E68BE403043D06098
:100850005E68022E02D05E68122E13D1CF0802F11C
:10086000200656F827004E07F70E0F26BE40B0436D
:100870004F07FF0E1E69BE403043CF0802F120062D
:1008800046F8270010684F000326BE40B0431E798B
:1008900006F003064F00BE40304310605E6806F06D
:1008A0008056B6F1805FA8D100BF00260096454E65
:1008B000366846F48046434F3E603E46366806F44E
:1008C0008046009600BF00BF3F4E8F0856F82700B5
:1008D0008E07370F0F26BE40B0433C4EB24202D1C6
:1008E00000262EE068E03A4EB24201D1012628E00F
:1008F000384EB24201D1022623E0374EB24201D136
:1009000003261EE0354EB24201D1042619E0344ED2
:10091000B24201D1052614E0324EB24201D1062680
:100920000FE0314EB24201D107260AE02F4EB2420B
:1009300001D1082605E02E4EB24201D1092600E081
:100940000A268F073F0FBE4030431F4E8F0846F8E0
:100950002700284E3068A0435E6806F48036B6F55E
:10096000803F00D12043234E3060361D3068A043C5
:100970005E6806F40036B6F5003F00D120431D4EF8
:10098000361D3060361D3068A0435E6806F4801660
:10099000B6F5801F00D12043164E08363060361D54
:1009A0003068A0435E6806F40016B6F5001F00D15B
:1009B0002043104E0C363060491C1029FFF416AF4E
:1009C000F8BD0000443802400838014000000240F1
:1009D0000004024000080240000C024000100240E7
:1009E0000014024000180240001C02400020024097
:1009F00000240240003C0140024613690B400BB149
:100A0000012000E0002070470AB1816101E00B0481
:100A1000836170470148006870470000140000209F
:100A20000348006803490978084401490860704791
:100A3000140000201C00002010B50D48006840F490
:100A400000700B4908600846006840F48060086048
:100A50000846006840F480700860032000F09AF8AF
:100A6000002000F007F800F02BF8002010BD000077
:100A7000003C024070B504460E4800784FF47A718D
:100A8000B1FBF0F00C490968B1FBF0F5284600F025
:100A900060FC08B1012070BD102C07D20022214655
:100AA000501E00F038F80548046001E00120F2E72C
:100AB0000020F0E71C00002020000020180000208B
:100AC00010B5072000F066F8002211466FF00B0009
:100AD00000F021F8002211466FF00A0000F01BF828
:100AE000002211466FF0090000F015F800221146AF
:100AF000501F00F010F800221146101F00F00BF8F4
:100B000000221146901E00F006F800221146501EE9
:100B100000F001F810BD2DE9F05F80460D46164645
:100B2000002701F021F9074639462A46334601F0ED
:100B30000700C0F1070ABAF1040F02D94FF0040A06
:100B400001E0C0F1070AD14600F1040ABAF1070F2B
:100B500002D24FF0000A01E0A0F1030AD4464FF0A0
:100B6000010A0AFA09FAAAF1010A0AEA020A0AFAC9
:100B70000CFA4FF0010B0BFA0CFBABF1010B0BEA7B
:100B8000030B4AEA0B042146404601F0F5F8BDE8A4
:100B9000F09F000000BF00F00702064B19684FF6F7
:100BA000FF031940044B0B4343EA0221014B196038
:100BB00000BF70470CED00E00000FA0538B50024D6
:100BC00000BF002000901D48006840F080501B4985
:100BD00008600846006800F08050009000BF00BF29
:100BE000012017490864FFF715FF044607E0FFF7E7
:100BF00011FF001BB0F57A7F01D9032038BD1148E1
:100C0000406800F48030B0F5803FF0D101200C49FD
:100C10004864FFF7FFFE044607E0FFF7FBFE001BFA
:100C2000B0F57A7F01D90320E8E70648406800F470
:100C30000030B0F5003FF0D10020DFE7403802403F
:100C400000000E420070004070B504460D460CB91D
:100C5000012070BD5848006800F00F00A84209D27A
:100C600055490D700846006800F00F00A84201D0F9
:100C70000120EEE7207800F0020002281DD1207844
:100C800000F00400042805D14C48006840F4E0500E
:100C90004A490860207800F00800082805D1474834
:100CA000006840F46040454908604448006820F00E
:100CB000F000A168084341490860207800F0010075
:100CC000A8B36068012807D13C4808380068C0F321
:100CD0004040B8B90120BCE76068022802D06068D3
:100CE000032807D1354808380068C0F3406048B988
:100CF0000120AEE7314808380068C0F3400008B969
:100D00000120A6E72D48006820F003006168084331
:100D10002A490860FFF77EFE064609E0FFF77AFEE3
:100D2000801B41F28831884202D9032091E707E015
:100D30002248006800F00C006168B0EB810FEDD133
:100D40001D48006800F00F00A84209D91A490D702B
:100D50000846006800F00F00A84201D0012078E7A3
:100D6000207800F00400042807D11448006820F41B
:100D7000E050E168084311490860207800F008005D
:100D8000082808D10D48006820F46040216940EA35
:100D9000C1000A49086000F03FF808490968C1F33A
:100DA0000311074A515CC8400649086006480068BC
:100DB000FFF760FE00204CE7003C0240083802408C
:100DC000182C0008200000201800002001480068AE
:100DD000704700002000002000B5FFF7F7FF04492E
:100DE0000968C1F38221034A515CC84000BD00007C
:100DF00008380240282C000800B5FFF7E7FF044937
:100E00000968C1F34231034A515CC84000BD00008B
:100E100008380240282C00082DE9F047002400255E
:100E20000026A1462548006800F00C0020B10428E7
:100E300005D008283AD105E0DFF8849039E0DFF8E2
:100E4000849036E01D48001F006800F03F041B48F6
:100E5000001F006800F4800078B11A481749091F84
:100E60000968C1F38811A0FB0170014622460023E6
:100E70003846FFF7B7F905460EE011480F49091F3C
:100E80000968C1F38811A0FB0170014622460023C6
:100E90003846FFF7A7F905460848001F0068C0F369
:100EA0000140401C4600B5FBF6F902E0DFF8109067
:100EB00000BF00BF4846BDE8F08700000838024088
:100EC0000024F40040787D01F8B504460CB90120F7
:100ED000F8BD207800F00100002874D0F9480068BF
:100EE00000F00C0004280DD0F648006800F00C005B
:100EF000082813D1F348001F006800F48000B0F503
:100F0000800F0BD1EF4808380068C0F3404000283C
:100F100059D06068002856D10120D9E700BF606829
:100F2000B0F5803F08D1E7480838006840F48030C9
:100F3000E449083908601EE06068B0F5A02F0DD1C3
:100F4000E0480838006840F48020DE49083908602D
:100F50000846006840F4803008600CE0D948083842
:100F6000006820F48030D7490839086008460068D6
:100F700020F48020086000BF606890B1FFF74AFD50
:100F8000054606E0FFF746FD401B642801D9032013
:100F90009EE7CC4808380068C0F340400028F1D0F4
:100FA00011E0FFF737FD054606E0FFF733FD401B74
:100FB000642801D903208BE7C24808380068C0F3D1
:100FC00040400028F1D1207800F0020002285FD1D3
:100FD000BC48006800F00C0058B1BA48006800F046
:100FE0000C0008281CD1B748001F006800F48000DE
:100FF000B0B9B44808380068C0F3400020B1E068D8
:10100000012801D0012063E7AE480838006820F0CD
:10101000F800216940EAC100AA490839086037E0B0
:10102000E06800B30120A8490860FFF7F3FC05461B
:1010300006E0FFF7EFFC401B022801D9032047E739
:10104000A04808380068C0F340000028F1D09D484F
:101050000838006820F0F800216940EAC100994989
:101060000839086014E0002097490860FFF7D2FCB7
:10107000054606E0FFF7CEFC401B022801D90320FD
:1010800026E7904808380068C0F340000028F1D1F6
:10109000207800F0080008282CD16069A8B1012050
:1010A0008A490860FFF7B6FC054606E0FFF7B2FC88
:1010B000401B022801D903200AE782486C300068EF
:1010C000C0F340000028F1D014E000207F49086000
:1010D000FFF7A0FC054606E0FFF79CFC401B02283A
:1010E00001D90320F4E677486C300068C0F3400073
:1010F0000028F1D1207800F00400042870D10027E6
:1011000070483830006800F0805090B900BF00206F
:1011100000906C483830006840F0805069493831A0
:1011200008600846006800F08050009000BF00BFD3
:1011300001276748006800F48070B0B9644800680F
:1011400040F4807062490860FFF764FC054606E0E1
:10115000FFF760FC401B022801D90320B8E65C4879
:10116000006800F480700028F2D000BFA068012859
:1011700008D154486830006840F001005149683196
:1011800008601DE0A06805280DD14E486830006851
:1011900040F004004B49683108600846006840F0A0
:1011A000010008600CE047486830006820F001004A
:1011B0004449683108600846006820F0040008606F
:1011C00000BFA068A8B1FFF725FC054609E0FFF7BE
:1011D00021FC401B41F28831884202D9032077E686
:1011E00026E0384868300068C0F340000028EED0A0
:1011F00013E0FFF70FFC054608E0FFF70BFC401B70
:1012000041F28831884201D9032061E62D486830D7
:101210000068C0F340000028EFD1012F07D1294812
:101220003830006820F0805026493831086000BF0F
:10123000A069002845D02348006800F00C00082869
:101240005DD0A069022845D100201F490866FFF73C
:10125000E1FB054606E0FFF7DDFB401B022801D954
:10126000032035E6174808380068C0F340600028BE
:10127000F1D1D4E907010843616A40EA81110122F2
:10128000A06AC2EB500041EA00412C20005D41EA17
:1012900000600C49091F086001200B490866FFF730
:1012A000B9FB054606E0FFF7B5FB401B022801D954
:1012B00003200DE6034808380068C0F340600028AA
:1012C000F1D03FE00838024000004742800E47421C
:1012D0000070004000201C490866FFF79BFB054694
:1012E00006E0FFF797FB401B022801D90320EFE53A
:1012F00016480068C0F340600028F2D122E0A069DF
:10130000012800D1E4E51148001D066806F48001BB
:10131000E069814214D106F03F01206A81420FD179
:1013200047F6C0703040616A884209D106F4403106
:10133000A06A814204D106F07061E06A814201D066
:101340000120C5E50020C3E5000047420038024007
:10135000704770B504462546681EB0F1807F01D302
:1013600001200FE0681E4FF0E02148610F214FF08F
:10137000FF3000F001FD00204FF0E02188610720E0
:101380000861002070BD10B5FFF7E2FF10BD10B579
:1013900004460CB9012010BDA06900B100E000BFF7
:1013A00094F8390028B9002084F83800204600F06D
:1013B00027F8242084F839002068C06820F4005001
:1013C0002168C860204600F091FA2068006920F486
:1013D0009040216808612068406920F02A00216857
:1013E00048612068C06840F400502168C86000204F
:1013F000E063202084F8390084F83A000020CAE72E
:1014000010B586B00446142101A8FEF723FF364923
:101410002068884230D100BF002000903348006827
:1014200040F40030314908600846006800F400309C
:10143000009000BF00BF00BF002000902B48103874
:10144000006840F00100294910390860084600682A
:1014500000F00100009000BF00BF0C2001900220AE
:10146000029000200390032004900720059001A91A
:101470001F48FFF7B3F934E01E492068884230D195
:1014800000BF002000901948006840F480201749F0
:1014900008600846006800F48020009000BF00BF8C
:1014A00000BF0020009011481038006840F0020092
:1014B0000E49103908600846006800F002000090EC
:1014C00000BF00BF4FF44060019002200290002056
:1014D0000390032004900720059001A90648FFF718
:1014E0007DF906B010BD00000044004040380240C5
:1014F0000000024000480040000402402DE9F8438B
:1015000004460D4616461F464FF0000994F83A006F
:10151000202861D105B116B90120BDE8F88300BFCC
:1015200094F83800012801D10220F6E7012084F860
:10153000380000BF0020E063222084F83A00FFF763
:1015400069FA8146A685E68500BF002084F8380048
:1015500000BF39E0E08D401EE085A068B0F5805FF7
:101560001BD14B46002220212046009700F0B2FB01
:1015700008B10320D1E7A846206938B9206840683F
:10158000C0F30800A8F80000AD1C1DE0206840680A
:10159000C0B2A8F800006D1C16E04B4600222021C6
:1015A0002046009700F096FB08B10320B5E72069BC
:1015B00020B92068406805F8010B05E02068406804
:1015C00000F07F0005F8010BE08D0028C2D120203B
:1015D00084F83A000020A0E702209EE72DE9F843B6
:1015E00004460D4616461F464FF0000994F8390090
:1015F00020285DD105B116B90120BDE8F88300BFF0
:1016000094F83800012801D10220F6E7012084F87F
:10161000380000BF0020E063212084F83900FFF784
:10162000F9F98146A684E68400BF002084F83800DA
:1016300000BF2BE0E08C401EE084A068B0F5805F26
:1016400016D14B46002280212046009700F042FB35
:1016500008B10320D1E7A846B8F80000C0F308009D
:1016600021684860206908B9AD1C0FE06D1C0DE0D1
:101670004B46002280212046009700F02BFB08B14A
:101680000320BAE715F8010B21684860E08C0028B8
:10169000D0D14B46002240212046009700F01AFB93
:1016A00008B10320A9E7202084F839000020A4E72E
:1016B0000220A2E700BFFEE710B505480549086013
:1016C0000846FFF760F808B1FFF748F810BD0000C2
:1016D000003002400000002000B587B0142102A8AD
:1016E000FEF7B8FD00BF002001902348006840F0DD
:1016F0002000214908600846006800F020000190A1
:1017000000BF00BF00BF002001900846006840F005
:10171000010008600846006800F00100019000BF69
:1017200000BF00BF002001900846006840F00200A2
:1017300008600846006800F00200019000BF00BF8A
:10174000002240210D48FFF75FF9012002900C486C
:1017500003900020049002A90A48FFF73FF84020B8
:1017600002900120039000200490059002A90348F4
:10177000FFF734F807B000BD3038024000140240D3
:10178000000021100000024010B50B480B49086012
:101790004FF4E1304860002108488160C160016178
:1017A0000C21416100218161C161FFF7F0FD08B1A9
:1017B000FEF7D4FF10BD00000044004024000020CC
:1017C00010B50B480B4908604FF4E1304860002128
:1017D00008488160C16001610C2141610021816183
:1017E000C161FFF7D4FD08B1FEF7B8FF10BD0000DE
:1017F000004800406400002000BFFEE770477047CB
:10180000704710B5FFF70CF9FFF7BDFD10BD0000E4
:1018100000B593B0302107A8FEF71CFD142102A8E3
:10182000FEF718FD00BF002001902748006840F037
:101830008050254908600846006800F080500190FB
:1018400000BF00BF00BF002001902048006840F4A6
:1018500040401E4908600846006800F4404001907E
:1018600000BF00BF0220079001200A9010200B90BB
:1018700002200D9000210E9110210F914FF4B471B0
:101880001091022111910421129107A8FFF71CFB6E
:1018900008B1FEF763FFFFF791F908B1FEF75EFFAD
:1018A0000F20029002200390002004904FF4A050DB
:1018B00005900690052102A8FFF7C6F908B1FEF7CA
:1018C0004DFF13B000BD00004038024000700040E2
:1018D0000548006840F47000034908604FF000605C
:1018E000014980390860704788ED00E02DE9F84F24
:1018F00004462068006920F44050E16808432168EC
:1019000008612169A068084361690843E1690843E7
:1019100000902068C06849F20C6188430099084330
:101920002168C8602068406920F44070A1690843BC
:1019300021684861E069B0F5004F75D1E34920683E
:10194000884203D0E249206888426FD1FFF754FAF9
:10195000814602206168A0FB01510B461920A9FBBA
:1019600000712A463846FEF73DFC6421B0FBF1F0D9
:101970004FEA001A02206168A0FB01510B461920B2
:10198000A9FB00712A463846FEF72CFC07460220C8
:101990006168A0FB01510B461920A9FB00B12A4642
:1019A0005846FEF71FFC6421B0FBF1F000EBC001CC
:1019B00001EB0010A7EB8000322101EBC000642195
:1019C000B0FBF1F000F0F8000AEB400A0220616879
:1019D000A0FB01510B461920A9FB00712A4638468D
:1019E000FEF700FC074602206168A0FB01510B4690
:1019F0001920A9FB00B12A465846FEF7F3FB6421E3
:101A0000B0FBF1F000EBC00101EB0010A7EB800090
:101A1000322101EBC0006421B0FBF1F000F00700BF
:101A20005044216888604FE16EE0FFE7FFF7D4F98A
:101A3000814602206168A0FB01510B461920A9FBD9
:101A400000712A463846FEF7CDFB6421B0FBF1F069
:101A50004FEA001A02206168A0FB01510B461920D1
:101A6000A9FB00712A463846FEF7BCFB0746022058
:101A70006168A0FB01510B461920A9FB00B12A4661
:101A80005846FEF7AFFB6421B0FBF1F000EBC0015C
:101A900001EB0010A7EB8000322101EBC0006421B4
:101AA000B0FBF1F000F0F8000AEB400A0220616898
:101AB000A0FB01510B461920A9FB00712A463846AC
:101AC000FEF790FB074602206168A0FB0150034629
:101AD0001920A9FB00B12A465846FEF783FB642172
:101AE000B0FBF1F000EBC00101EB0010A7EB8000B0
:101AF000322101EBC0006421B0FBF1F000F00700DF
:101B0000504421688860DFE070492068884203D033
:101B10006F49206888426BD1FFF76EF98146042037
:101B20006168A0FB01510B461920A9FB00712A46F0
:101B30003846FEF757FB824604206168A0FB01513E
:101B40000B461920A9FB00712A463846FEF74AFBCE
:101B50006421B0FBF1F000EBC00101EB0010AAEB37
:101B60008000322101EB00106421B0FBF1F000F0A5
:101B7000F00A04206168A0FB015003461920A9FB6C
:101B800000712A463846FEF72DFB6421B0FBF1F0C8
:101B90000AEB001A04206168A0FB01510B461920D2
:101BA000A9FB00712A463846FEF71CFB07460420B5
:101BB0006168A0FB015003461920A9FB00B12A4629
:101BC0005846FEF70FFB6421B0FBF1F000EBC001BB
:101BD00001EB0010A7EB8000322101EB0010642123
:101BE000B0FBF1F000F00F005044216888606BE01A
:101BF000FFF7F2F8814604206168A0FB015003461C
:101C00001920A9FB00712A463846FEF7EBFA8246F6
:101C100004206168A0FB015003461920A9FB007154
:101C20002A463846FEF7DEFA6421B0FBF1F000EBFD
:101C3000C00101EB0010AAEB8000322101EB001083
:101C40006421B0FBF1F000F0F00A04206168A0FB11
:101C5000015003461920A9FB00712A463846FEF7B9
:101C6000C1FA6421B0FBF1F00AEB001A04206168AC
:101C7000A0FB017003461920A9FB005001463A461B
:101C80002846FEF7AFFA074604206168A0FB015022
:101C900003461920A9FB00B12A465846FEF7A2FACE
:101CA0006421B0FBF1F000EBC00101EB0010A7EBE9
:101CB0008000322101EB00106421B0FBF1F000F054
:101CC0000F00504421688860BDE8F88F0010014083
:101CD000001401402DE9F04104460D461746984690
:101CE000069E21E0701CF8B12EB1FEF793FEA0EB2A
:101CF0000800B04218D92068C06820F4D07021686C
:101D0000C8602068406920F00100216848612020F7
:101D100084F8390084F83A0000BF002084F83800C5
:101D200000BF0320BDE8F081206800682840A84279
:101D300001D1012000E00020B842D3D00020F1E71B
:101D400000BFFEE737B514460846064B6A462146F3
:101D500000F0F8F804466946002000F08AFC2046AE
:101D60003EBD00007326000802480068C0F3022050
:101D7000704700000CED00E010B5002804DB0A07F6
:101D8000130E054A135406E00A07140E034A00F026
:101D90000F031B1FD45410BD00E400E018ED00E059
:101DA00002E008C8121F08C1002AFAD17047704724
:101DB000002001E001C1121F002AFBD17047000082
:101DC0002DE9FF5F82B00021DDE90430020DDDF86E
:101DD00040B0034318D044F61050A2F2FF32424301
:101DE0001514119801281FD0A5EB0B00401C5FEAC9
:101DF000000A4FF000064E4FDFF83891B0465046CB
:101E000015D5CAF1000413E0119801244AA3012852
:101E100001D16FEA0B010298119AC0E90031C0E9C3
:101E2000024206B0BDE8F09FCBF10000DFE70446B8
:101E30000021404A491842EB0450CDE9001012E05D
:101E4000E00707D032463B4640464946FEF7F0FAE7
:101E50008046894632463B4610461946FEF7E8FA68
:101E600006460F466410002CEAD1DDE90401DDE9E5
:101E70000023BAF1000F06DAFEF7DAFA42464B46C3
:101E8000FEF7D6FA05E0FEF745FB42464B46FEF765
:101E900041FB04460E460022284BFEF7C3FB03D845
:101EA0004FF0FF30014607E00022254B2046314627
:101EB000FEF717FAFEF79DFB102409E0002C0ADB61
:101EC0000A220023FEF78EF9039B30321A55641E56
:101ED00050EA0102F2D1641C039AC4F111031444C4
:101EE000119A012A03D0012208430DD10AE00843C8
:101EF00004D000204FF0110B119072E7A3EB0B05FB
:101F00006D1E0DE05B4504DD4FF0000205F101059B
:101F100004E003DA4FF00002A5F10105002AECD03D
:101F200002981199C0E90231C0E9004579E7000043
:101F3000000014400000F03F300000000000F043BB
:101F40000000E03F2DE9FF4F95B09B4689460646CD
:101F500000250FE2252877D100242746F84A0121E1
:101F6000059400E0044316F8013F203B01FA03F01A
:101F70001042F7D130782A2811D06FF02F03307833
:101F8000A0F13002092A16D8059A44F0020402EBA7
:101F9000820203EB42021044761C0590EFE759F8E9
:101FA000042B0592002A03DA504244F400540590B1
:101FB00044F00204761C30782E2816D116F8010F52
:101FC00044F004042A280DD06FF02F023078A0F1DD
:101FD0003003092B09D807EB870302EB4303C7182B
:101FE000761CF3E759F8047B761C30786C280FD008
:101FF00006DC4C2817D068280DD06A2814D104E0DC
:10200000742810D07A280FD10DE044F400140AE0AF
:1020100044F4801401E044F440147278824202D106
:1020200004F58014761C761C307866280BD013DCFF
:10203000582877D009DC002875D04528F6D04628E6
:10204000F4D047281AD19DE118E0632835D06428E0
:1020500079D0652812D195E1702873D008DC672803
:10206000F1D069286FD06E280DD06F2806D1B5E069
:1020700073282CD0752875D0782874D05A461799B3
:1020800090476D1C75E1C4F30250022809D0032863
:102090000DD0D9F8001004280DD00D6009F1040905
:1020A00067E1D9F80010EA17C1E90052F6E7D9F85C
:1020B00000100D80F2E70D70F0E719F8041B8DF8A1
:1020C000001000208DF80100EA46012003E059F8D5
:1020D00004AB4FF0FF3061074FF0000102D40DE078
:1020E00008F101018846B9420FDA8045F8DB1AF899
:1020F00008100029F4D108E008F101018846814266
:10210000FADB1AF808100029F6D105985B46A0EB17
:10211000080721463846179A00F094FA284400EB45
:10212000080507E04DE029E10DE01AF8010B5A46D9
:1021300017999047B8F10108F7D25B462146384617
:10214000179A13E142E00A220092C4F302524FF0C0
:10215000000A022A08D059F804CB032A4FEAEC718E
:102160000AD00DE029E02AE009F1070121F0070279
:10217000F2E802C1914609E00FFA8CFC4FEAEC71DB
:10218000042A03D14FFA8CFC4FEAEC71002907DADC
:102190000A460021DCF1000C61EB02012D2202E075
:1021A000220504D52B228DF80420012203E0E2074A
:1021B00001D02022F7E7904659E00A2102E01022E0
:1021C0000DE010214FF0000A00910BE010224FF0BB
:1021D000000A44F004040827009203E008224FF0AC
:1021E000000A0092C4F30252022A05D059F804CB27
:1021F0000021032A08D009E009F1070121F00702B4
:10220000F2E802C1914605E01FFA8CFC042A01D1D4
:102210000CF0FF0C4FF00008220728D5702806D0DC
:10222000009B83F0100353EA0A0305D00EE040221E
:102230008DF80420012208E05CEA010206D0302279
:102240008DF804208DF8050002229046009B83F053
:10225000080353EA0A030AD15CEA010201D16207CA
:1022600005D530228DF804204FF001087F1E582834
:1022700004D034A003900EA802900DE036A0F9E738
:1022800053466046009AFDF7ADFF84460398825C92
:102290000298401E029002705CEA0100F0D10298A0
:1022A00006A9081A00F1200A600702D524F4803438
:1022B00000E00127574502DDA7EB0A0000E00020FF
:1022C00000EB0A01009005984144401A0590E00394
:1022D00006D45B462146179A059800F0B3F90544E9
:1022E000002706E001A85A46C05D179990476D1C6B
:1022F0007F1C4745F6DBE0030CD55B462146179A69
:10230000059800F09FF9054404E030205A461799DB
:1023100090476D1C0099481E00900029F5DC08E0EC
:10232000029802995A460078491C029117999047E1
:102330006D1CBAF10001AAF1010AF1DC65E10000AF
:10234000092801003031323334353637383961628B
:10235000636465660000000030313233343536374F
:1023600038394142434445460000000000F058F926
:102370000544761C307800287FF4ECAD19B028466F
:10238000BDE8F08F620700D4062709F1070222F0AA
:10239000070CFCE80223E14603F000485FEA080C62
:1023A00002D00FF2702C0DE05FEA045C02D50FF250
:1023B000682C07E05FEAC47C02D00FF2602C01E0D9
:1023C000AFF2700C4FF0FF3823F00043CDF850C04F
:1023D00065280CD006DC452809D046281DD04728A2
:1023E0003DD13DE0662818D067287ED138E0002135
:1023F000112F01DB112000E0781CCDE9000106A9B6
:102400000EA8FFF7DDFCDDE90F010E9A0391002114
:10241000009207F1010A04914DE04FF0004000974F
:10242000CDE9011006A90EA8FFF7CAFCDDE90F02ED
:1024300003920E9B11990022DDF80CA000930492E8
:1024400011B9791C00EB010AB7EB0A0004D4C0F102
:10245000FF3007F1010A0490AAEB0700019044E065
:10246000012F00DA01270021112F01DD112000E0EA
:102470003846CDE9000106A90EA8FFF7A1FCDDE969
:102480000F010E9A0391002104910092BA46210790
:102490000CD40399514500DA8A46BAF1010F05DDE3
:1024A000009AAAF10101515C302908D0B84202DA41
:1024B00010F1040F06DA0121CDE9011015E0AAF1AF
:1024C0000101E9E7002805DC049901440491AAEB25
:1024D000000102E0411C514500DD8A460499401A82
:1024E000401C01904FF000400290200704D4019856
:1024F000504501DBCDF8048000208DF84F00029894
:102500000DF14F07B0F1004F25D02B200E9002980F
:102510004FF0020800280CDA404202902D200E9065
:1025200007E00A210298FDF7A7FE3031029007F874
:10253000011DB8F10001A8F10108F2DC02980028A1
:10254000EFD1791E0E980870307800F0200040F02E
:10255000450007F8020D12A8C01B00F107081498E7
:10256000007800B1012000EB0A01019801EBE07155
:1025700005984144401A401E0590E00306D45B468E
:102580002146179A059800F05DF8054414980078E4
:1025900018B15A46179990476D1CE00324D55B4645
:1025A0002146179A059800F04DF805441CE0049860
:1025B000002807DBDDE90301884203DD0098405C69
:1025C000179901E0179930205A469047049805F171
:1025D0000105401C04900198401E019004D12E205A
:1025E0005A46179990476D1CBAF10001AAF1010AE9
:1025F000DDDC05E017F8010B5A46179990476D1C72
:10260000B8F10001A8F10108F4DC5B462146179AF5
:102610000598ABE62D0000002B0000002000000014
:102620002DE9F041044600251E461746880404D4CF
:1026300005E039462020B0476D1C641EF9D52846B8
:10264000BDE8F0812DE9F041044600251E46904684
:10265000C80301D5302700E02027880404D505E011
:1026600041463846B0476D1C641EF9D52846BDE882
:10267000F0810A68531C0B6010707047F8B504466F
:102680000020009015A000F0A9FA1F480078451C12
:102690001D48284450F8046C291F32461A4800F09F
:1026A00013FAA0B919A000F099FA2078022100F0DD
:1026B0008BF900F031FA0090BDF8002011461CA003
:1026C00000F08CFA0221684600F0F0F904E021A045
:1026D00000F084FA00F08AF9F8BD0000424C5F4433
:1026E000454255475F4D53473A626F6F746C6F6157
:1026F0006465725F68616E646C655F676574636969
:10270000645F636D640A0000A4000020424C5F44D3
:10271000454255475F4D53473A636865636B737530
:102720006D20737563636573732021210A000000B7
:10273000424C5F44454255475F4D53473A4D4355E0
:10274000206964203A202564202523782021210A4D
:1027500000000000424C5F44454255475F4D5347DF
:102760003A636865636B73756D206661696C2021DF
:10277000210A000070B5044610A000F02FFA1A4894
:102780000078451C1848284450F8046C291F32462C
:10279000154800F099F958B914A000F01FFA2078F4
:1027A0000C2100F011F90C21194800F07FF904E028
:1027B00018A000F013FA00F019F970BD424C5F4404
:1027C000454255475F4D53473A626F6F746C6F6176
:1027D0006465725F68616E646C655F676574686587
:1027E0006C705F636D640A00A4000020424C5F447B
:1027F000454255475F4D53473A636865636B737550
:102800006D20737563636573732021210A000000D6
:1028100008000020424C5F44454255475F4D5347F6
:102820003A636865636B73756D206661696C20211E
:10283000210A0000F8B5044614A000F0CFF9207872
:10284000451C601950F8046C291F3246204600F0E0
:102850003BF9A0B918A000F0C1F92078012100F0DF
:10286000B3F800F057F900909DF8002011461BA026
:1028700000F0B4F90121684600F018F904E01FA047
:1028800000F0ACF900F0B2F8F8BD0000424C5F4433
:10289000454255475F4D53473A626F6F746C6F61A5
:1028A0006465725F68616E646C655F6765747665A8
:1028B000725F636D640A0000424C5F4445425547B5
:1028C0005F4D53473A636865636B73756D2073752D
:1028D00063636573732021210A000000424C5F444A
:1028E000454255475F4D53473A424C5F564552204B
:1028F0003A202564202523780A000000424C5F44DA
:10290000454255475F4D53473A636865636B73753E
:102910006D206661696C2021210A000070B50BA052
:1029200000F05CF914480468214614A000F056F940
:10293000204680F3088800BF0F4846683546294680
:1029400016A000F04BF9A84770BD0000424C5F4450
:10295000454255475F4D53473A626F6F746C6F61E4
:102960006465725F6A756D705F746F5F75736572B1
:102970005F6170700A00000000800008424C5F44F4
:10298000454255475F4D53473A4D53502076616C51
:102990007565203A202523780A000000424C5F44E8
:1029A000454255475F4D53473A206170702072652C
:1029B0007365742068616E646C6572206164647212
:1029C000203A202523780A0038B505460C46A52074
:1029D0008DF800008DF801404FF0FF330222694668
:1029E0000148FEF7FBFD38BD6400002008B57F20DC
:1029F00000904FF0FF33012269460248FEF7EEFDDA
:102A000008BD00006400002000242DE0C821174804
:102A1000FDF720FC4FF0FF33012214491448FEF764
:102A20006DFD124804784FF0FF332246411C1048D8
:102A3000FEF764FD0D484078512804D0522806D096
:102A400053280CD107E00948FFF7F4FE0BE00748D4
:102A5000FFF790FE07E00548FFF710FE03E005A032
:102A600000F0BCF800BF00BFD0E70000A4000020C9
:102A700064000020424C5F44454255475F4D534738
:102A80003A496E76616C696420636F6D6D616E6446
:102A900020636F646520726563656976656420668E
:102AA000726F6D20686F7374200A000070B5044661
:102AB0000D46AAB24FF0FF3321460248FEF78EFDC5
:102AC00070BD0000640000202DE9F84305460E4665
:102AD00017464FF0FF08002408E0285D009001220F
:102AE00069460B48FDF73BFE8046641CB442F4D3B4
:102AF00007480068806840F001000549096888605F
:102B0000B84502D10020BDE8F8830120FBE70000B2
:102B1000000000201020704702490968C1F30B0033
:102B200070470000002004E0FDF786FFFEF770FE0E
:102B3000FEF7D2FDFEF7C0FDFEF726FEFEF740FED3
:102B40000EE001210748FDF757FF20B106A000F075
:102B500045F8FFF759FF12A000F040F8FFF7DEFE3E
:102B6000EFE7000000000240424C5F4445425547F9
:102B70005F4D53473A427574746F6E2069732070CD
:102B8000726573736564202E2E20676F696E6720EF
:102B9000746F20424C206D6F64650A0D00000000C8
:102BA000424C5F44454255475F4D53473A42757426
:102BB000746F6E206973206E6F742070726573730A
:102BC0006564202E2E20657865637574696E6720B4
:102BD00075736572206170700A0000000FB410B543
:102BE00096B019A8019002A8019A1899FFF7AAF8BF
:102BF00002A8FDF73AFB84B24FF0FF33224602A948
:102C00000448FEF7EBFC0020019016B010BC5DF804
:102C100014FB000024000020000000000000000061
:102C20000102030406070809000000000102030472
:102C3000502C00080000002024000000A01D000807
:102C4000742C0008240000204C050000B01D000872
:102C500000000000000000005152535455565758D0
:102C6000595B5C5A000000001000000001000000E9
:042C70000024F40048
:04000005080001AD41
:00000001FF
